{
  "_format": "hh-sol-artifact-1",
  "contractName": "PriceOracle",
  "sourceName": "contracts/core/PriceOracle.sol",
  "abi": [
    {
      "inputs": [],
      "stateMutability": "nonpayable",
      "type": "constructor"
    },
    {
      "inputs": [],
      "name": "EnforcedPause",
      "type": "error"
    },
    {
      "inputs": [],
      "name": "ExpectedPause",
      "type": "error"
    },
    {
      "inputs": [
        {
          "internalType": "address",
          "name": "owner",
          "type": "address"
        }
      ],
      "name": "OwnableInvalidOwner",
      "type": "error"
    },
    {
      "inputs": [
        {
          "internalType": "address",
          "name": "account",
          "type": "address"
        }
      ],
      "name": "OwnableUnauthorizedAccount",
      "type": "error"
    },
    {
      "inputs": [],
      "name": "ReentrancyGuardReentrantCall",
      "type": "error"
    },
    {
      "anonymous": false,
      "inputs": [
        {
          "indexed": true,
          "internalType": "address",
          "name": "asset",
          "type": "address"
        },
        {
          "indexed": false,
          "internalType": "uint256",
          "name": "price",
          "type": "uint256"
        },
        {
          "indexed": false,
          "internalType": "string",
          "name": "reason",
          "type": "string"
        }
      ],
      "name": "FallbackCalled",
      "type": "event"
    },
    {
      "anonymous": false,
      "inputs": [
        {
          "indexed": true,
          "internalType": "address",
          "name": "asset",
          "type": "address"
        },
        {
          "indexed": true,
          "internalType": "address",
          "name": "chainlinkFeed",
          "type": "address"
        },
        {
          "indexed": false,
          "internalType": "uint256",
          "name": "heartbeat",
          "type": "uint256"
        }
      ],
      "name": "OracleAdded",
      "type": "event"
    },
    {
      "anonymous": false,
      "inputs": [
        {
          "indexed": true,
          "internalType": "address",
          "name": "asset",
          "type": "address"
        },
        {
          "indexed": false,
          "internalType": "string",
          "name": "reason",
          "type": "string"
        }
      ],
      "name": "OracleFrozen",
      "type": "event"
    },
    {
      "anonymous": false,
      "inputs": [
        {
          "indexed": true,
          "internalType": "address",
          "name": "asset",
          "type": "address"
        }
      ],
      "name": "OracleRemoved",
      "type": "event"
    },
    {
      "anonymous": false,
      "inputs": [
        {
          "indexed": true,
          "internalType": "address",
          "name": "asset",
          "type": "address"
        }
      ],
      "name": "OracleUnfrozen",
      "type": "event"
    },
    {
      "anonymous": false,
      "inputs": [
        {
          "indexed": true,
          "internalType": "address",
          "name": "asset",
          "type": "address"
        },
        {
          "indexed": true,
          "internalType": "address",
          "name": "chainlinkFeed",
          "type": "address"
        },
        {
          "indexed": false,
          "internalType": "uint256",
          "name": "heartbeat",
          "type": "uint256"
        }
      ],
      "name": "OracleUpdated",
      "type": "event"
    },
    {
      "anonymous": false,
      "inputs": [
        {
          "indexed": true,
          "internalType": "address",
          "name": "previousOwner",
          "type": "address"
        },
        {
          "indexed": true,
          "internalType": "address",
          "name": "newOwner",
          "type": "address"
        }
      ],
      "name": "OwnershipTransferred",
      "type": "event"
    },
    {
      "anonymous": false,
      "inputs": [
        {
          "indexed": false,
          "internalType": "address",
          "name": "account",
          "type": "address"
        }
      ],
      "name": "Paused",
      "type": "event"
    },
    {
      "anonymous": false,
      "inputs": [
        {
          "indexed": true,
          "internalType": "address",
          "name": "asset",
          "type": "address"
        },
        {
          "indexed": false,
          "internalType": "uint256",
          "name": "price",
          "type": "uint256"
        },
        {
          "indexed": false,
          "internalType": "uint256",
          "name": "timestamp",
          "type": "uint256"
        }
      ],
      "name": "PriceUpdated",
      "type": "event"
    },
    {
      "anonymous": false,
      "inputs": [
        {
          "indexed": false,
          "internalType": "address",
          "name": "account",
          "type": "address"
        }
      ],
      "name": "Unpaused",
      "type": "event"
    },
    {
      "inputs": [],
      "name": "DECIMAL_PRECISION",
      "outputs": [
        {
          "internalType": "uint256",
          "name": "",
          "type": "uint256"
        }
      ],
      "stateMutability": "view",
      "type": "function"
    },
    {
      "inputs": [],
      "name": "MAX_PRICE_DEVIATION_FROM_PREVIOUS_ROUND",
      "outputs": [
        {
          "internalType": "uint256",
          "name": "",
          "type": "uint256"
        }
      ],
      "stateMutability": "view",
      "type": "function"
    },
    {
      "inputs": [],
      "name": "MAX_PRICE_DIFFERENCE_BETWEEN_ORACLES",
      "outputs": [
        {
          "internalType": "uint256",
          "name": "",
          "type": "uint256"
        }
      ],
      "stateMutability": "view",
      "type": "function"
    },
    {
      "inputs": [],
      "name": "TIMEOUT",
      "outputs": [
        {
          "internalType": "uint256",
          "name": "",
          "type": "uint256"
        }
      ],
      "stateMutability": "view",
      "type": "function"
    },
    {
      "inputs": [
        {
          "internalType": "address",
          "name": "asset",
          "type": "address"
        },
        {
          "internalType": "address",
          "name": "chainlinkFeed",
          "type": "address"
        },
        {
          "internalType": "uint256",
          "name": "heartbeat",
          "type": "uint256"
        }
      ],
      "name": "addOracle",
      "outputs": [],
      "stateMutability": "nonpayable",
      "type": "function"
    },
    {
      "inputs": [
        {
          "internalType": "address",
          "name": "asset",
          "type": "address"
        },
        {
          "internalType": "string",
          "name": "reason",
          "type": "string"
        }
      ],
      "name": "freezeOracle",
      "outputs": [],
      "stateMutability": "nonpayable",
      "type": "function"
    },
    {
      "inputs": [
        {
          "internalType": "address",
          "name": "asset",
          "type": "address"
        }
      ],
      "name": "getLastUpdateTime",
      "outputs": [
        {
          "internalType": "uint256",
          "name": "",
          "type": "uint256"
        }
      ],
      "stateMutability": "view",
      "type": "function"
    },
    {
      "inputs": [
        {
          "internalType": "address",
          "name": "asset",
          "type": "address"
        }
      ],
      "name": "getOracleInfo",
      "outputs": [
        {
          "internalType": "address",
          "name": "feed",
          "type": "address"
        },
        {
          "internalType": "uint8",
          "name": "decimals",
          "type": "uint8"
        },
        {
          "internalType": "uint256",
          "name": "heartbeat",
          "type": "uint256"
        },
        {
          "internalType": "bool",
          "name": "isActive",
          "type": "bool"
        },
        {
          "internalType": "uint256",
          "name": "lastGoodPrice",
          "type": "uint256"
        },
        {
          "internalType": "uint256",
          "name": "lastUpdateTime",
          "type": "uint256"
        },
        {
          "internalType": "bool",
          "name": "frozen",
          "type": "bool"
        }
      ],
      "stateMutability": "view",
      "type": "function"
    },
    {
      "inputs": [
        {
          "internalType": "address",
          "name": "asset",
          "type": "address"
        }
      ],
      "name": "getPrice",
      "outputs": [
        {
          "internalType": "uint256",
          "name": "",
          "type": "uint256"
        }
      ],
      "stateMutability": "view",
      "type": "function"
    },
    {
      "inputs": [
        {
          "internalType": "address",
          "name": "asset",
          "type": "address"
        }
      ],
      "name": "getPriceWithStatus",
      "outputs": [
        {
          "internalType": "uint256",
          "name": "price",
          "type": "uint256"
        },
        {
          "internalType": "bool",
          "name": "isValid",
          "type": "bool"
        }
      ],
      "stateMutability": "view",
      "type": "function"
    },
    {
      "inputs": [],
      "name": "getRegisteredAssets",
      "outputs": [
        {
          "internalType": "address[]",
          "name": "",
          "type": "address[]"
        }
      ],
      "stateMutability": "view",
      "type": "function"
    },
    {
      "inputs": [
        {
          "internalType": "address",
          "name": "",
          "type": "address"
        }
      ],
      "name": "isFrozen",
      "outputs": [
        {
          "internalType": "bool",
          "name": "",
          "type": "bool"
        }
      ],
      "stateMutability": "view",
      "type": "function"
    },
    {
      "inputs": [
        {
          "internalType": "address",
          "name": "",
          "type": "address"
        }
      ],
      "name": "lastGoodPrices",
      "outputs": [
        {
          "internalType": "uint256",
          "name": "price",
          "type": "uint256"
        },
        {
          "internalType": "uint256",
          "name": "timestamp",
          "type": "uint256"
        },
        {
          "internalType": "bool",
          "name": "isValid",
          "type": "bool"
        }
      ],
      "stateMutability": "view",
      "type": "function"
    },
    {
      "inputs": [
        {
          "internalType": "address",
          "name": "",
          "type": "address"
        }
      ],
      "name": "oracles",
      "outputs": [
        {
          "internalType": "contract AggregatorV3Interface",
          "name": "chainlinkFeed",
          "type": "address"
        },
        {
          "internalType": "uint8",
          "name": "decimals",
          "type": "uint8"
        },
        {
          "internalType": "uint256",
          "name": "heartbeat",
          "type": "uint256"
        },
        {
          "internalType": "bool",
          "name": "isActive",
          "type": "bool"
        },
        {
          "internalType": "uint256",
          "name": "lastGoodPrice",
          "type": "uint256"
        },
        {
          "internalType": "uint256",
          "name": "lastUpdateTime",
          "type": "uint256"
        }
      ],
      "stateMutability": "view",
      "type": "function"
    },
    {
      "inputs": [],
      "name": "owner",
      "outputs": [
        {
          "internalType": "address",
          "name": "",
          "type": "address"
        }
      ],
      "stateMutability": "view",
      "type": "function"
    },
    {
      "inputs": [],
      "name": "paused",
      "outputs": [
        {
          "internalType": "bool",
          "name": "",
          "type": "bool"
        }
      ],
      "stateMutability": "view",
      "type": "function"
    },
    {
      "inputs": [
        {
          "internalType": "uint256",
          "name": "",
          "type": "uint256"
        }
      ],
      "name": "registeredAssets",
      "outputs": [
        {
          "internalType": "address",
          "name": "",
          "type": "address"
        }
      ],
      "stateMutability": "view",
      "type": "function"
    },
    {
      "inputs": [],
      "name": "renounceOwnership",
      "outputs": [],
      "stateMutability": "nonpayable",
      "type": "function"
    },
    {
      "inputs": [
        {
          "internalType": "address",
          "name": "newOwner",
          "type": "address"
        }
      ],
      "name": "transferOwnership",
      "outputs": [],
      "stateMutability": "nonpayable",
      "type": "function"
    },
    {
      "inputs": [
        {
          "internalType": "address",
          "name": "asset",
          "type": "address"
        }
      ],
      "name": "unfreezeOracle",
      "outputs": [],
      "stateMutability": "nonpayable",
      "type": "function"
    },
    {
      "inputs": [
        {
          "internalType": "address",
          "name": "asset",
          "type": "address"
        }
      ],
      "name": "updatePrice",
      "outputs": [],
      "stateMutability": "nonpayable",
      "type": "function"
    }
  ],
  "bytecode": "0x6080806040523461007e5733156100685760008054336001600160a01b03198216811783556040519290916001600160a01b0316907f8be0079c531659141344cd1fd0a4f28419497f9722a3daafe3b4186f6b6457e09080a36001805561169690816100848239f35b631e4fbdf760e01b815260006004820152602490fd5b600080fdfe6080604052600436101561001257600080fd5b60003560e01c8063351132ad14610b615780633fc05ba814610b0b57806341976e0914610ae057806345079cb414610abe5780634684e7a514610a8d57806358a6aa8814610a6a5780635c975abb14610a475780636e1c8205146109905780636e8c271b14610936578063715018a6146108dd5780638da5cb5b146108b457806396e85ced1461086b578063a083bd3c14610829578063a20baee614610806578063addd50991461078d578063bfdb6b04146106cb578063c4828729146102ba578063cf5cb132146101f2578063e5839836146101b3578063f2fde38b146101255763f56f48f21461010357600080fd5b346101205760003660031901126101205760206040516138408152f35b600080fd5b346101205760203660031901126101205761013e610c49565b610146611259565b6001600160a01b0390811690811561019a57600054826bffffffffffffffffffffffff60a01b821617600055167f8be0079c531659141344cd1fd0a4f28419497f9722a3daafe3b4186f6b6457e0600080a3005b604051631e4fbdf760e01b815260006004820152602490fd5b34610120576020366003190112610120576001600160a01b036101d4610c49565b166000526005602052602060ff604060002054166040519015158152f35b3461012057600036600319011261012057604051806006548083526020809301809160066000527ff652222313e28459528d920b65115c16c04f3efc82aaedc97be59f3f377c0d3f9060005b8682821061029d57868661025482880383610d08565b604051928392818401908285525180915260408401929160005b82811061027d57505050500390f35b83516001600160a01b03168552869550938101939281019260010161026e565b83546001600160a01b03168552909301926001928301920161023e565b34610120576060366003190112610120576102d3610c49565b6024356001600160a01b0381169190829003610120576044906102f4611259565b82156106905781351561065857604051633fabe5a360e21b815260a081600481875afa8060009260009261061f575b506103655760405162461bcd60e51b815260206004820152601660248201527511995959081d985b1a59185d1a5bdb8819985a5b195960521b81860152606490fd5b60008213156105db578015610597576040519163313ce56760e01b918284526020846004818a5afa93841561056a57600094610576575b506040519283526020836004818a5afa92831561056a5760049360a0936103cb92600092610539575b5061153f565b610462604051926103db84610cec565b89845260ff602085019716875260408401893581526060850191600183526080860194855286860152600180871b0389166000526003602052604060002097600180881b0386511689549160ff891b9051891b16916affffffffffffffffffffff60a81b1617178855516001880155511515600287019060ff801983541691151516179055565b516003850155015191015561047681611615565b156104b5575b604051913582526001600160a01b0316907fc9c48c8a3a63b9d481d1f1dc5a7ca531d0fe9ddfd25f00f6c91090175f7b005390602090a3005b60065468010000000000000000811015610523577fc9c48c8a3a63b9d481d1f1dc5a7ca531d0fe9ddfd25f00f6c91090175f7b0053916104fd82600160209401600655610c5f565b81546001600160a01b0384811660039390931b92831b921b1916179055915061047c9050565b634e487b7160e01b600052604160045260246000fd5b61055c91925060203d602011610563575b6105548183610d08565b810190611240565b908a6103c5565b503d61054a565b6040513d6000823e3d90fd5b61059091945060203d602011610563576105548183610d08565b928761039c565b60405162461bcd60e51b815260206004820152601b60248201527f496e76616c69642074696d657374616d702066726f6d2066656564000000000081860152606490fd5b60405162461bcd60e51b815260206004820152601760248201527f496e76616c69642070726963652066726f6d206665656400000000000000000081860152606490fd5b909250610644915060a03d60a011610651575b61063c8183610d08565b81019061120b565b5093925050919086610323565b503d610632565b60405162461bcd60e51b8152602060048201526011602482015270125b9d985b1a59081a19585c9d1899585d607a1b81840152606490fd5b60405162461bcd60e51b8152602060048201526014602482015273496e76616c69642066656564206164647265737360601b81840152606490fd5b346101205760203660031901126101205760e06001600160a01b03806106ef610c49565b1680600052600360205260a0604060002060405161070c81610cec565b60ff825495861695868352841c169384602083015260018301549081604084015260ff600285015416151592836060820152600460038601549586608084015201549586910152600052600560205260ff6040600020541694604051968752602087015260408601526060850152608084015260a0830152151560c0820152f35b346101205760203660031901126101205760c06001600160a01b03806107b1610c49565b1660005260036020526040600020805490600181015460ff6002830154169060ff6004600385015494015494604051968116875260a01c166020860152604085015215156060840152608083015260a0820152f35b34610120576000366003190112610120576020604051670de0b6b3a76400008152f35b346101205760203660031901126101205760043560065481101561012057610852602091610c5f565b905460405160039290921b1c6001600160a01b03168152f35b3461012057602036600319011261012057610884610c49565b6002600154146108a25761089c906002600155610fb3565b60018055005b604051633ee5aeb560e01b8152600490fd5b34610120576000366003190112610120576000546040516001600160a01b039091168152602090f35b34610120576000366003190112610120576108f6611259565b600080546001600160a01b0319811682556001600160a01b03167f8be0079c531659141344cd1fd0a4f28419497f9722a3daafe3b4186f6b6457e08280a3005b34610120576020366003190112610120576001600160a01b03610957610c49565b1680600052600360205261097560ff60026040600020015416610cac565b60005260036020526020600460406000200154604051908152f35b34610120576020366003190112610120576109a9610c49565b6109b1611259565b6001600160a01b031660008181526005602052604090205460ff1615610a0e57806000526005602052604060002060ff1981541690557f1a9745cd6551107ac03984b7f68380169cb6d023690a7c10a2640eb530a19aa7600080a2005b60405162461bcd60e51b815260206004820152601160248201527027b930b1b632903737ba10333937bd32b760791b6044820152606490fd5b3461012057600036600319011261012057602060ff600254166040519015158152f35b346101205760003660031901126101205760206040516706f05b59d3b200008152f35b34610120576020366003190112610120576040610ab0610aab610c49565b610e7e565b825191825215156020820152f35b3461012057600036600319011261012057602060405166b1a2bc2ec500008152f35b34610120576020366003190112610120576020610b03610afe610c49565b610d2a565b604051908152f35b34610120576020366003190112610120576001600160a01b03610b2c610c49565b1660005260046020526060604060002080549060ff600260018301549201541690604051928352602083015215156040820152f35b3461012057604036600319011261012057610b7a610c49565b67ffffffffffffffff9060243582811161012057366023820112156101205780600401359283116101205736602484830101116101205760406024917f6e0543ba8aee3fd24d8024b2baa6248364859911a87a87205d94b56559cd57b793610be0611259565b60018060a01b031694856000526003602052610c0560ff600285600020015416610cac565b85600052600560205282600020600160ff198254161790558083519485936020855282602086015201848401376000828201840152601f01601f19168101030190a2005b600435906001600160a01b038216820361012057565b600654811015610c965760066000527ff652222313e28459528d920b65115c16c04f3efc82aaedc97be59f3f377c0d3f0190600090565b634e487b7160e01b600052603260045260246000fd5b15610cb357565b60405162461bcd60e51b81526020600482015260116024820152704f7261636c65206e6f742061637469766560781b6044820152606490fd5b60c0810190811067ffffffffffffffff82111761052357604052565b90601f8019910116810190811067ffffffffffffffff82111761052357604052565b60018060a01b0380911660009080825260209160038352604091610d5660ff6002858520015416610cac565b8082526005845260ff8383205416610e4a579082918152600384522091815193610d7f85610cec565b610de384549160ff8184169384895260a01c1684880152610dcf60018701549386890194855260ff600289015416151560608a0152600460038901549860808b01998a52015460a08a01526112c1565b9651166001600160501b03875116906113af565b92610dee84876114b6565b918215610e31575b5050610e295790610e15610e1b9285015160ff6080870151169061153f565b9361159f565b610e23575090565b90505190565b505090505190565b610e42919250519186015142611501565b113880610df6565b825162461bcd60e51b815260048101859052600d60248201526c27b930b1b63290333937bd32b760991b6044820152606490fd5b6001600160a01b0390811660009081526003602090815260408083206002015460ff16158015610fa2575b610f92576003825280832091815194610ec186610cec565b610f2584549160ff81841693848a5260a01c1684890152610f11600187015493868a0194855260ff600289015416151560608b0152600460038901549860808c01998a52015460a08b01526112c1565b9751166001600160501b03885116906113af565b92610f3084886114b6565b918215610f79575b5050610f705790610f57610f5d9286015160ff6080880151169061153f565b9461159f565b610f6957505090600190565b5192909150565b50505192909150565b610f8a919250519187015142611501565b113880610f38565b6003918290528220015492909150565b506005825260ff8184205416610ea9565b9060018060a01b0380921660009281845260209060038252604091610fe060ff6002858920015416610cac565b8386526005815260ff83872054166111ef5760038152828620918254169161101c61100a846112c1565b936001600160501b03855116906113af565b9261102784826114b6565b80156111d6575b61116d5761105161104a8483015160ff6080850151169061153f565b948261159f565b61110b57846004918560038501550191825191829101558451906060820182811067ffffffffffffffff8211176110f7577fb556fac599c3c70efb9ab1fa725ecace6c81cc48d1455f886607def065f3e0c09798996110ea939260029289528784528684019081528880850192600184528c815260048952209351845551600184015551151591019060ff801983541691151516179055565b51908351928352820152a2565b634e487b7160e01b8a52604160045260248afd5b507f155133d94fee487d6f7a6355a1d0362cd6f22bd16d11bf7945d6eb5138798c64949596506016919250928060036080950154938151948552840152820152755072696365206368616e676520746f6f206c6172676560501b6060820152a2565b507f155133d94fee487d6f7a6355a1d0362cd6f22bd16d11bf7945d6eb5138798c6494959650601a9192509280600360809501549381519485528401528201527f436861696e6c696e6b2062726f6b656e206f722066726f7a656e0000000000006060820152a2565b5060018201546111e98683015142611501565b1161102e565b505050509050565b51906001600160501b038216820361012057565b908160a09103126101205761121f816111f7565b9160208201519160408101519161123d6080606084015193016111f7565b90565b90816020910312610120575160ff811681036101205790565b6000546001600160a01b0316330361126d57565b60405163118cdaa760e01b8152336004820152602490fd5b6040519060a0820182811067ffffffffffffffff8211176105235760405260006080838281528260208201528260408201528260608201520152565b6112c9611285565b506112d2611285565b604051633fabe5a360e21b815290916001600160a01b031660a082600481845afa9060009180600094600092611384575b5061131657505050506000606082015290565b6004936001600160501b036020941686528386015260408501526040519283809263313ce56760e01b82525afa801561056a5760ff91600091611365575b501660808201526001606082015290565b61137e915060203d602011610563576105548183610d08565b38611354565b915092506113a291935060a03d60a0116106515761063c8183610d08565b5091949293905038611303565b906113b8611285565b506113c1611285565b916001600160501b038092169081156114b057600019909101906001600160a01b031682821161149a57604051639a6fc8f560e01b8152918316600483015260a082602481845afa60009281600091600093611472575b5061142c5750505050506000606082015290565b6004946020941686528386015260408501526040519283809263313ce56760e01b82525afa801561056a5760ff9160009161136557501660808201526001606082015290565b9150935061148f915060a03d60a0116106515761063c8183610d08565b509294905038611418565b634e487b7160e01b600052601160045260246000fd5b50505090565b906060820151159182156114f4575b82156114e4575b5081156114d7575090565b6000915060200151131590565b60200151600012159150386114cc565b60608201511592506114c5565b9190820391821161149a57565b60ff16604d811161149a57600a0a90565b8115611529570490565b634e487b7160e01b600052601260045260246000fd5b9060ff1660128110156115745760120360ff811161149a576115609061150e565b9081810291818304149015171561149a5790565b60128111611580575090565b601119019060ff821161149a5761159961123d9261150e565b9061151f565b60608201511561160e576020806115d2920151920151918083106000146116085782905b80841115611603575082611501565b670de0b6b3a76400009081810291818304149015171561149a576706f05b59d3b20000916115ff9161151f565b1190565b611501565b806115c3565b5050600090565b6006549060005b82811061162b57505050600090565b61163481610c5f565b905460039190911b1c6001600160a01b03908116908316146116585760010161161c565b50505060019056fea264697066735822122029a89d4c8842ddceb0ea79fb9974a57970485d59c02c0d35a955d7686fa3ede364736f6c63430008180033",
  "linkReferences": {},
  "deployedLinkReferences": {}
}